:100000000C9434000C9451000C9451000C94510049
:100010000C9451000C9451000C9451000C9451001C
:100020000C9451000C9451000C9451000C94EF006E
:100030000C941F010C9451000C94CF000C945100AF
:100040000C9451000C9451000C9451000C945100EC
:100050000C9451000C9451000C9451000C945100DC
:100060000C9451000C94510011241FBECFEFD4E02A
:10007000DEBFCDBF11E0A0E0B1E0E2E3F2E102C0FB
:1000800005900D92AE3BB107D9F711E0AEEBB1E0B0
:1000900001C01D92A13CB107E1F70E9495040C94A8
:1000A00017090C9400008CE80E949F0180E00E94D8
:1000B0009F0184E00E949F018CE30E949F0186E0E3
:1000C0000E949F0188E40E949F0186E00E949F0198
:1000D00084E50E949F0186E00E949F0180E60E94C5
:1000E0009F0186E00E949F018CE80E949F0181E0B1
:1000F0000E949F0186E00E949F0185E40E949F016B
:1001000082E10E949F0188E40E949F018CE00E948E
:100110009F018AE40E949F018CE00E949F0188E475
:100120000E949F018CE00E949F0185E40E949F0134
:100130008CE00E949F018DE40E949F0188E10C9455
:100140009F011D9912C01D990CC05F9884EF91E02A
:100150000E946C015F9A84E690E00E946C015F98B7
:10016000F2CF8CEA9DE00E946C018091C00087FF75
:1001700004C08091C6008111F8CF08951D9B089599
:100180001D9B0CC05F9884EF91E00E946C015F9A08
:1001900084E690E00E946C015F98F2CF08951F9270
:1001A0000F920FB60F9211248F939F938091BF01EE
:1001B0009091C001892B51F08091BF019091C001B5
:1001C00001979093C0018093BF0102C01092BE01BD
:1001D0009F918F910F900FBE0F901F9018951F92B7
:1001E0000F920FB60F9211242F933F934F935F936B
:1001F0006F937F938F939F93AF93BF93EF93FF93EF
:100200008BE80E949F0180E00E949F018FEF0E9477
:100210009F018FEF0E949F010E948504FF91EF9143
:10022000BF91AF919F918F917F916F915F914F910E
:100230003F912F910F900FBE0F901F9018951F9216
:100240000F920FB60F9211242F933F934F935F930A
:100250006F937F938F939F93AF93BF93EF93FF938E
:100260008BE80E949F0180E00E949F0180E00E9435
:100270009F018FEF0E949F010E948504FF91EF91E3
:10028000BF91AF919F918F917F916F915F914F91AE
:100290003F912F910F900FBE0F901F90189582E005
:1002A00084BD95E095BD91E197BD80936E0010925D
:1002B00080008DE0809381008FE99CE89093890015
:1002C000809388008FE496E490938B0080938A005B
:1002D00086E080936F000895F89421E02093BE019A
:1002E0009093C0018093BF0178948091BE018823D0
:1002F00011F00000FACF089580E184B98FEC85B940
:1003000017B88FEF88B986EE8AB98DE78BB9089553
:1003100083E190E09093C5008093C40088E98093C6
:10032000C10086E08093C20078940895F8940E94FA
:100330007C010E944F010E94880178940895909159
:10034000C00095FFFCCF8093C60008958091C00047
:1003500087FFFCCF8091C6000895CF93C82F8C30C3
:1003600008F053C081E80E949F018091C000806422
:100370008093C0008C2F0E949F018091C00086FF57
:10038000FCCFF894CB3019F489E090E034C0CA3047
:1003900019F483E190E02FC0C93019F48DE190E0A9
:1003A0002AC0C83019F487E290E025C0C73019F49C
:1003B0008BE390E020C0C63019F48FE490E01BC0BE
:1003C000C53019F487E790E016C0C43019F48FEEF9
:1003D00090E011C0C33019F48FED91E00CC0C23031
:1003E00019F48FEB93E007C0C13019F48FE797E061
:1003F00002C08FEF9EE09093C5008093C400789474
:1004000084E690E0CF910C946C01CF910895CF9346
:10041000DF93EC0181E90E949F018D2F0E949F01D3
:100420008C2F0E949F018D2F0E949F018C2FDF91A6
:10043000CF910C949F0180E090E00C940702CF9242
:10044000DF92FF920F931F93CF93DF931F92CDB74D
:10045000DEB76C01181619064CF0D194C194D1087E
:1004600015EA00E09BE5FF24FA9404C01BE50FEFBA
:1004700095EAF12C81E999830E949F018F2D0E94BA
:100480009F019981892F0E949F01802F0E949F01C7
:10049000812F0E949F01C6010E946C010F90DF9185
:1004A000CF911F910F91FF90DF90CF900C941B0282
:1004B000CF92DF92EF92FF920F931F93CF93DF9330
:1004C0006C01CC0CDD1CC80ED91EC0E0D0E0EE24BF
:1004D000D7FCE094FE2C08EE13E084E690E00E9446
:1004E000070280E49FE10E946C010E941B02C4305D
:1004F000D105E1F0C701B6010E9457052AED3FE0A2
:1005000049E450E40E94E30520E030E040EA50E492
:100510000E94BC040E942405069F9001079F300D95
:10052000169F300D1124C9010E941F022196C5306B
:10053000D10599F6DF91CF911F910F91FF90EF9028
:10054000DF90CF900895559A08955D9808955D9A2B
:100550000895569A08955E9808955E9A08958BE8D6
:1005600090E00E949F0180E090E00E949F018FEF49
:1005700090E00E949F018FEF90E00C949F01EF921A
:10058000FF920F931F93CF93DF938C01EC0109909F
:100590000020E9F72197C81BD90B7C01C701801BFC
:1005A000910B8C179D0734F4F70181917F010E9414
:1005B0009F01F4CFCE01DF91CF911F910F91FF905A
:1005C000EF9008950F931F93CF93DF93CDB7DEB7CE
:1005D0002B970FB6F894DEBF0FBECDBF8EE80E94FA
:1005E0009F018BE10E949F010E94A601182F0E948B
:1005F000A601212F30E0322F2227282B3F932F9363
:1006000080E091E09F938F938E010F5F1F4F1F93A8
:100610000F930E944606C8010E94BF020F900F90E0
:100620000F900F900F900F902B960FB6F894DEBF9F
:100630000FBECDBFDF91CF911F910F9108950F9302
:100640001F93CF93DF93CDB7DEB7C255D1090FB655
:10065000F894DEBF0FBECDBF8EE80E949F018CE1F3
:100660000E949F010E94A601182F0E94A601212F1F
:1006700030E0322F2227282B3F932F9389E091E0FF
:100680009F938F938E010E5B1F4F1F930F930E94BA
:100690004606C8010E94BF028EE80E949F018DE1BC
:1006A0000E949F010E94A601182F0E94A601212FDF
:1006B00030E0322F2227282B3F932F9388E191E0BF
:1006C0009F938F938E01075E1F4F1F930F930E947E
:1006D0004606C8010E94BF028EE80E949F018EE17B
:1006E0000E949F010E94A601182F0E94A601212F9F
:1006F00030E0322F2227282B3F932F938DE291E079
:100700009F938F938E010F5F1F4F1F930F930E9434
:100710004606C8010E94BF028EE80E949F018FE139
:100720000E949F010E94A601182F0E94A601212F5E
:1007300030E0322F2227282B3F932F9383E491E040
:100740009F938F938E01005D1F4F1F930F930E9405
:100750004606C8010E94BF020FB6F894DEBF0FBE66
:10076000CDBFCE5ADF4F0FB6F894DEBF0FBECDBF60
:10077000DF91CF911F910F910895CF92DF92EF9269
:10078000FF920F931F93CF93DF93CDB7DEB7C2587D
:10079000D1090FB6F894DEBF0FBECDBF8091C00067
:1007A00087FF03C08091C600F9CF8EE80E949F01A9
:1007B00083E00E949F017E0189E7E80EF11C67013A
:1007C0009AE0C90ED11C87010E94A601F70181930E
:1007D0007F01EC15FD05C1F7F80180811F928F9311
:1007E00083E591E09F938F937E01F9E4EF0EF11C76
:1007F000FF92EF920E944606C7010E94BF02F801D5
:10080000818190E0982F88272281822B9F938F935C
:1008100086E691E09F938F937E01FAE6EF0EF11C3E
:10082000FF92EF920E944606C7010E94BF02F801A4
:10083000838190E0982F88272481822B9F938F9328
:1008400082E791E09F938F937E01FAE5EF0EF11C12
:10085000FF92EF920E944606C7010E94BF02F80174
:1008600085811F928F938EE791E09F938F93CE01A6
:1008700001967C01FF928F930E944606C7010E9459
:10088000BF02F801868190E0982F88272781822B6C
:100890009F938F9386E991E09F938F937E01F3E37B
:1008A000EF0EF11CFF92EF920E944606C7010E94D4
:1008B000BF02F801808590E0982F88272185822B40
:1008C0009F938F9389EA91E09F938F938E01055EAA
:1008D0001F4F1F930F930E9446060FB6F894DEBF7A
:1008E0000FBECDBFC8010E94BF02CE57DF4F0FB66B
:1008F000F894DEBF0FBECDBFDF91CF911F910F9156
:10090000FF90EF90DF90CF9008950E94E2020E9446
:100910001F030C94BD0370E09B01382BC90108959F
:1009200070E09B01382BC90108950E9496010E9436
:10093000A10080E80E949F018AE00E94AD010E9410
:10094000530082E80E949F0184E80E949F010E9458
:100950001B028DE80E949F0180E00E949F018EEEA5
:1009600092E00E946C015D984C99FECF0E94BE00FF
:1009700081E090E00E9417090CD0EBC0E3D040F07A
:10098000DAD030F021F45F3F19F0CCC0511115C11D
:10099000CFC0F0D098F39923C9F35523B1F3951B39
:1009A000550BBB27AA2762177307840738F09F5F90
:1009B0005F4F220F331F441FAA1FA9F333D00E2EFF
:1009C0003AF0E0E830D091505040E695001CCAF76C
:1009D00029D0FE2F27D0660F771F881FBB1F261731
:1009E00037074807AB07B0E809F0BB0B802DBF0104
:1009F000FF2793585F4F2AF09E3F510568F092C041
:100A0000DCC05F3FECF3983EDCF386957795679505
:100A1000B795F7959F5FC9F7880F911D96958795B4
:100A200097F90895E1E0660F771F881FBB1F6217D3
:100A300073078407BA0720F0621B730B840BBA0B91
:100A4000EE1F88F7E095089504D06894B111B5C001
:100A5000089598D088F09F5790F0B92F9927B751F3
:100A6000A0F0D1F0660F771F881F991F1AF0BA9572
:100A7000C9F712C0B13081F09FD0B1E008959CC099
:100A8000672F782F8827B85F39F0B93FCCF3869568
:100A900077956795B395D9F73EF4909580957095C5
:100AA00061957F4F8F4F9F4F0895E89409C097FB42
:100AB0003EF490958095709561957F4F8F4F9F4F35
:100AC0009923A9F0F92F96E9BB279395F695879579
:100AD00077956795B795F111F8CFFAF4BB0F11F43C
:100AE00060FF1BC06F5F7F4F8F4F9F4F16C08823E3
:100AF00011F096E911C0772321F09EE8872F762F19
:100B000005C0662371F096E8862F70E060E02AF059
:100B10009A95660F771F881FDAF7880F9695879545
:100B200097F9089597F99F6780E870E060E008956D
:100B30009FEF80EC089500240A94161617061806F5
:100B40000906089500240A941216130614060506D1
:100B50000895092E0394000C11F4882352F0BB0F62
:100B600040F4BF2B11F460FF04C06F5F7F4F8F4FC5
:100B70009F4F089557FD9058440F551F59F05F3F00
:100B800071F04795880F97FB991F61F09F3F79F0AF
:100B900087950895121613061406551FF2CF469531
:100BA000F1DF08C0161617061806991FF1CF8695B3
:100BB0007105610508940895E894BB276627772797
:100BC000CB0197F908950BD0C4CFB5DF28F0BADF79
:100BD00018F0952309F0A6CFABCF1124EECFCADFD2
:100BE000A0F3959FD1F3950F50E0551F629FF00140
:100BF000729FBB27F00DB11D639FAA27F00DB11D99
:100C0000AA1F649F6627B00DA11D661F829F222721
:100C1000B00DA11D621F739FB00DA11D621F839FA8
:100C2000A00D611D221F749F3327A00D611D231F7E
:100C3000849F600D211D822F762F6A2F11249F57CC
:100C400050408AF0E1F088234AF0EE0FFF1FBB1FEF
:100C5000661F771F881F91505040A9F79E3F51058E
:100C600070F060CFAACF5F3FECF3983EDCF386953F
:100C700077956795B795F795E7959F5FC1F7FE2B39
:100C8000880F911D9695879597F90895AEE0B0E08D
:100C9000ECE4F6E00C94EE080D891E8986E08C8366
:100CA0001A8309838FEF9FE79E838D83AE01475E92
:100CB0005F4F6F89788DCE0101960E946806EF81A3
:100CC000F885E00FF11F10822E96E4E00C940A09DB
:100CD000ACE0B0E0EEE6F6E00C94E0087C016B01DD
:100CE0008A01FC0117821682838181FFBDC1CE017A
:100CF00001964C01F7019381F60193FD859193FFD5
:100D000081916F01882309F4ABC1853239F493FDD9
:100D1000859193FF81916F01853229F4B70190E0AD
:100D20000E945008E7CF512C312C20E02032A0F453
:100D30008B3269F030F4803259F0833269F42061EB
:100D40002CC08D3239F0803339F4216026C0226006
:100D5000246023C0286021C027FD27C030ED380F54
:100D60003A3078F426FF06C0FAE05F9E300D112479
:100D7000532E13C08AE0389E300D1124332E20628A
:100D80000CC08E3221F426FD6BC1206406C08C3667
:100D900011F4206802C0883641F4F60193FD859174
:100DA00093FF81916F018111C1CF982F9F7D955441
:100DB000933028F40C5F1F4FFFE3F9830DC0833697
:100DC00031F0833771F0833509F05BC022C0F80140
:100DD000808189830E5F1F4F44244394512C54011A
:100DE00015C03801F2E06F0E711CF801A080B180CF
:100DF00026FF03C0652D70E002C06FEF7FEFC501D5
:100E00002C870E9445082C0183012C852F77222EE8
:100E100017C03801F2E06F0E711CF801A080B1809C
:100E200026FF03C0652D70E002C06FEF7FEFC501A4
:100E30002C870E943A082C012C852068222E8301E1
:100E400023FC1BC0832D90E048165906B0F4B7016F
:100E500080E290E00E9450083A94F4CFF50127FC1C
:100E6000859127FE81915F01B70190E00E945008B3
:100E700031103A94F1E04F1A51084114510471F7BE
:100E8000E5C0843611F0893639F5F80127FF07C02F
:100E900060817181828193810C5F1F4F08C06081E6
:100EA0007181882777FD8095982F0E5F1F4F2F76D1
:100EB000B22E97FF09C090958095709561957F4FF0
:100EC0008F4F9F4F2068B22E2AE030E0A4010E948D
:100ED0008208A82EA81844C0853729F42F7EB22E88
:100EE0002AE030E025C0F22FF97FBF2E8F36C1F007
:100EF00018F4883579F0B4C0803719F0883721F0BC
:100F0000AFC02F2F2061B22EB4FE0DC08B2D846098
:100F1000B82E09C024FF0AC09F2F9660B92E06C0C4
:100F200028E030E005C020E130E002C020E132E0FE
:100F3000F801B7FE07C060817181828193810C5FE7
:100F40001F4F06C06081718180E090E00E5F1F4FEF
:100F5000A4010E948208A82EA818FB2DFF77BF2E9F
:100F6000B6FE0BC02B2D2E7FA51450F4B4FE0AC084
:100F7000B2FC08C02B2D2E7E05C07A2C2B2D03C071
:100F80007A2C01C0752C24FF0DC0FE01EA0DF11D65
:100F90008081803311F4297E09C022FF06C073943A
:100FA000739404C0822F867809F0739423FD13C0D4
:100FB00020FF06C05A2C731418F4530C5718732CC6
:100FC000731468F4B70180E290E02C870E94500807
:100FD00073942C85F5CF731410F4371801C0312C9D
:100FE00024FF12C0B70180E390E02C870E945008D4
:100FF0002C8522FF17C021FF03C088E590E002C0C6
:1010000088E790E0B7010CC0822F867859F021FD67
:1010100002C080E201C08BE227FD8DE2B70190E0C3
:101020000E945008A51438F4B70180E390E00E94B4
:1010300050085A94F7CFAA94F401EA0DF11D80816B
:10104000B70190E00E945008A110F5CF332009F4B9
:1010500051CEB70180E290E00E9450083A94F6CF5A
:10106000F7018681978102C08FEF9FEF2C96E2E116
:101070000C94FC08FC010590615070400110D8F7F9
:10108000809590958E0F9F1F0895FC0161507040D0
:1010900001900110D8F7809590958E0F9F1F0895AD
:1010A0000F931F93CF93DF93182F092FEB018B81A1
:1010B00081FD03C08FEF9FEF20C082FF10C04E81E3
:1010C0005F812C813D81421753077CF4E881F981CF
:1010D0009F012F5F3F4F39832883108306C0E88527
:1010E000F985812F0995892B29F72E813F812F5F63
:1010F0003F4F3F832E83812F902FDF91CF911F9100
:101100000F910895FA01AA27283051F1203181F179
:10111000E8946F936E7F6E5F7F4F8F4F9F4FAF4FFF
:10112000B1E03ED0B4E03CD0670F781F891F9A1F12
:10113000A11D680F791F8A1F911DA11D6A0F711DC6
:10114000811D911DA11D20D009F468943F912AE0D2
:10115000269F11243019305D3193DEF6CF010895BA
:10116000462F4770405D4193B3E00FD0C9F7F6CFEB
:10117000462F4F70405D4A3318F0495D31FD4052B3
:10118000419302D0A9F7EACFB4E0A6959795879549
:1011900077956795BA95C9F7009761057105089528
:1011A0009B01AC010A2E06945795479537952795D4
:1011B000BA95C9F7620F731F841F951FA01D08956C
:1011C0002F923F924F925F926F927F928F929F9257
:1011D000AF92BF92CF92DF92EF92FF920F931F9345
:1011E000CF93DF93CDB7DEB7CA1BDB0B0FB6F894F6
:1011F000DEBF0FBECDBF09942A88398848885F8436
:101200006E847D848C849B84AA84B984C884DF80A6
:10121000EE80FD800C811B81AA81B981CE0FD11D8A
:101220000FB6F894DEBF0FBECDBFED010895F89460
:02123000FFCFEE
:1012320057616C6C3A20256900436C696666204CE4
:101242006566743A20256900436C696666204672B9
:101252006F6E74204C6566743A20256900436C6990
:1012620066662046726F6E742052696768743A200F
:10127200256900436C6966662052696768743A2082
:101282002569004368617267696E672053746174EF
:10129200653A20256900566F6C746167653A2025AE
:1012A200690043757272656E743A20256900426165
:1012B20074746572792054656D70657261747572AB
:1012C200653A202569004261747465727920436829
:1012D200617267653A2025690042617474657279AA
:0E12E2002043617061636974793A20256900C8
:00000001FF
