:100000000C9434000C9451000C9451000C94510049
:100010000C9451000C9451000C9451000C9451001C
:100020000C9451000C9451000C9451000C94EF006E
:100030000C941B010C9451000C94CF000C945100B3
:100040000C9451000C9451000C9451000C945100EC
:100050000C9451000C9451000C9451000C945100DC
:100060000C9451000C94510011241FBECFEFD4E02A
:10007000DEBFCDBF11E0A0E0B1E0ECE6FFE002C0E2
:1000800005900D92AE3BB107D9F711E0AEEBB1E0B0
:1000900001C01D92A23CB107E1F70E9475040C94C7
:1000A000B4070C9400008CE80E94970180E00E9445
:1000B000970184E00E9497018CE30E94970186E0FB
:1000C0000E94970188E40E94970186E00E949701B0
:1000D00084E50E94970186E00E94970180E60E94D5
:1000E000970186E00E9497018CE80E94970181E0C9
:1000F0000E94970186E00E94970185E40E94970183
:1001000082E10E94970188E40E9497018CE00E949E
:1001100097018AE40E9497018CE00E94970188E48D
:100120000E9497018CE00E94970185E40E9497014C
:100130008CE00E9497018DE40E94970188E10C9465
:1001400097011D9912C01D990CC05F9884EF91E032
:100150000E9464015F9A84E690E00E9464015F98C7
:10016000F2CF8CEA9DE00E9464018091C00087FF7D
:1001700004C08091C6008111F8CF08951D9B089599
:100180001D9B0CC05F9884EF91E00E9464015F9A10
:1001900084E690E00E9464015F98F2CF08951F9278
:1001A0000F920FB60F9211248F939F938091BF01EE
:1001B0009091C001892B51F08091BF019091C001B5
:1001C00001979093C0018093BF0102C01092BE01BD
:1001D0009F918F910F900FBE0F901F9018951F92B7
:1001E0000F920FB60F9211242F933F934F935F936B
:1001F0006F937F938F939F93AF93BF93EF93FF93EF
:100200008EE80E94970181E10E9497010E949E0161
:100210008093C101FF91EF91BF91AF919F918F9119
:100220007F916F915F914F913F912F910F900FBEF2
:100230000F901F9018951F920F920FB60F921124D6
:100240002F933F934F935F936F937F938F939F93DE
:10025000AF93BF93EF93FF938EE80E94970181E1E4
:100260000E9497010E949E018093C101FF91EF912E
:10027000BF91AF919F918F917F916F915F914F91BE
:100280003F912F910F900FBE0F901F90189582E015
:1002900084BD95E095BD91E197BD80936E0010926D
:1002A00080008DE0809381008FE99CE89093890025
:1002B000809388008FE496E490938B0080938A006B
:1002C00086E080936F000895F89421E02093BE01AA
:1002D0009093C0018093BF0178948091BE018823E0
:1002E00011F00000FACF089580E184B98FEC85B950
:1002F00017B88FEF88B986EE8AB98DE78BB9089564
:1003000083E190E09093C5008093C40088E98093D6
:10031000C10086E08093C20078940895F8940E940A
:1003200074010E9447010E94800178940895909181
:10033000C00095FFFCCF8093C60008958091C00057
:1003400087FFFCCF8091C6000895CF93C82F8C30D3
:1003500008F053C081E80E9497018091C00080643A
:100360008093C0008C2F0E9497018091C00086FF6F
:10037000FCCFF894CB3019F489E090E034C0CA3057
:1003800019F483E190E02FC0C93019F48DE190E0B9
:100390002AC0C83019F487E290E025C0C73019F4AC
:1003A0008BE390E020C0C63019F48FE490E01BC0CE
:1003B000C53019F487E790E016C0C43019F48FEE09
:1003C00090E011C0C33019F48FED91E00CC0C23041
:1003D00019F48FEB93E007C0C13019F48FE797E071
:1003E00002C08FEF9EE09093C5008093C400789484
:1003F00084E690E0CF910C946401CF910895CF935F
:10040000DF93EC0181E90E9497018D2F0E949701F3
:100410008C2F0E9497018D2F0E9497018C2FDF91C6
:10042000CF910C94970180E090E00C94FF01CF9263
:10043000DF92FF920F931F93CF93DF931F92CDB75D
:10044000DEB76C01181619064CF0D194C194D1088E
:1004500015EA00E09BE5FF24FA9404C01BE50FEFCA
:1004600095EAF12C81E999830E9497018F2D0E94D2
:1004700097019981892F0E949701802F0E949701EF
:10048000812F0E949701C6010E9464010F90DF91A5
:10049000CF911F910F91FF90DF90CF900C9413029A
:1004A0000F931F93CF93DF9329E0AC01249FC001EA
:1004B000259F900D112465E070E00E94BB0488EE3A
:1004C00093E0689F8001699F100D789F100D1124A3
:1004D000C0E0D0E084E690E00E94FF0180E49FE16C
:1004E0000E9464010E941302C430D10519F0C801B2
:1004F0000E9417022196C530D10561F7DF91CF9197
:100500001F910F910895559A08955D9808955D9AE9
:100510000895569A08955E9808955E9A08958BE816
:1005200090E00E94970180E090E00E9497018FEF99
:1005300090E00E9497018FEF90E00C949701EF926A
:10054000FF920F931F93CF93DF938C01EC010990DF
:100550000020E9F72197C81BD90B7C01C701801B3C
:10056000910B8C179D0734F4F70181917F010E9454
:100570009701F4CFCE01DF91CF911F910F91FF90A2
:10058000EF9008950F931F93CF93DF93CDB7DEB70E
:100590002B970FB6F894DEBF0FBECDBF8EE80E943A
:1005A00097018BE10E9497010E949E01182F0E94E3
:1005B0009E01212F30E0322F2227282B3F932F93AB
:1005C00080E091E09F938F938E010F5F1F4F1F93E9
:1005D0000F930E94E304C8010E949F020F900F90A6
:1005E0000F900F900F900F902B960FB6F894DEBFE0
:1005F0000FBECDBFDF91CF911F910F9108950F9343
:100600001F93CF93DF93CDB7DEB7C255D1090FB695
:10061000F894DEBF0FBECDBF8EE80E9497018CE13B
:100620000E9497010E949E01182F0E949E01212F77
:1006300030E0322F2227282B3F932F9389E091E03F
:100640009F938F938E010E5B1F4F1F930F930E94FA
:10065000E304C8010E949F028EE80E9497018DE189
:100660000E9497010E949E01182F0E949E01212F37
:1006700030E0322F2227282B3F932F9388E191E0FF
:100680009F938F938E01075E1F4F1F930F930E94BE
:10069000E304C8010E949F028EE80E9497018EE148
:1006A0000E9497010E949E01182F0E949E01212FF7
:1006B00030E0322F2227282B3F932F938DE291E0B9
:1006C0009F938F938E010F5F1F4F1F930F930E9475
:1006D000E304C8010E949F028EE80E9497018FE107
:1006E0000E9497010E949E01182F0E949E01212FB7
:1006F00030E0322F2227282B3F932F9383E491E081
:100700009F938F938E01005D1F4F1F930F930E9445
:10071000E304C8010E949F020FB6F894DEBF0FBE2B
:10072000CDBFCE5ADF4F0FB6F894DEBF0FBECDBFA0
:10073000DF91CF911F910F910895CF92DF92EF92A9
:10074000FF920F931F93CF93DF93CDB7DEB7C258BD
:10075000D1090FB6F894DEBF0FBECDBF8091C000A7
:1007600087FF03C08091C600F9CF8EE80E949701F1
:1007700083E00E9497017E0189E7E80EF11C670182
:100780009AE0C90ED11C87010E949E01F701819356
:100790007F01EC15FD05C1F7F80180811F928F9351
:1007A00083E591E09F938F937E01F9E4EF0EF11CB6
:1007B000FF92EF920E94E304C7010E949F02F8019A
:1007C000818190E0982F88272281822B9F938F939D
:1007D00086E691E09F938F937E01FAE6EF0EF11C7F
:1007E000FF92EF920E94E304C7010E949F02F8016A
:1007F000838190E0982F88272481822B9F938F9369
:1008000082E791E09F938F937E01FAE5EF0EF11C52
:10081000FF92EF920E94E304C7010E949F02F80139
:1008200085811F928F938EE791E09F938F93CE01E6
:1008300001967C01FF928F930E94E304C7010E94FE
:100840009F02F801868190E0982F88272781822BCC
:100850009F938F9386E991E09F938F937E01F3E3BB
:10086000EF0EF11CFF92EF920E94E304C7010E9479
:100870009F02F801808590E0982F88272185822BA0
:100880009F938F9389EA91E09F938F938E01055EEA
:100890001F4F1F930F930E94E3040FB6F894DEBF1F
:1008A0000FBECDBFC8010E949F02CE57DF4F0FB6CB
:1008B000F894DEBF0FBECDBFDF91CF911F910F9196
:1008C000FF90EF90DF90CF9008950E94C2020E94A7
:1008D000FF020C949D0370E09B01382BC901089521
:1008E00070E09B01382BC90108950E948E010E947F
:1008F000A10080E80E9497018AE00E94A5010E9461
:10090000530082E80E94970184E80E9497010E94A8
:1009100013028DE80E94970180E00E9497018EEEFD
:1009200092E00E9464010E948F028091C1018F3F7A
:1009300019F40E94130217C080E00E949701809171
:10094000C101813819F48BE092E004C0833829F4A6
:1009500085EF9DEF0E94170206C0823821F484E6DD
:1009600090E00E94FF014C99E0CF0E94BE0081E020
:1009700090E00E94B40797FB072E16F4009407D06E
:1009800077FD09D00E94CF0407FC05D03EF4909576
:1009900081959F4F0895709561957F4F0895AA1B8B
:1009A000BB1B51E107C0AA1FBB1FA617B70710F05A
:1009B000A61BB70B881F991F5A95A9F7809590958C
:1009C000BC01CD010895AEE0B0E0E9EEF4E00C9496
:1009D0008B070D891E8986E08C831A8309838FEF2C
:1009E0009FE79E838D83AE01475E5F4F6F89788D51
:1009F000CE0101960E940505EF81F885E00FF11FF9
:100A000010822E96E4E00C94A707ACE0B0E0EBE097
:100A1000F5E00C947D077C016B018A01FC011782D3
:100A20001682838181FFBDC1CE0101964C01F70181
:100A30009381F60193FD859193FF81916F01882346
:100A400009F4ABC1853239F493FD859193FF81910F
:100A50006F01853229F4B70190E00E94ED06E7CFDF
:100A6000512C312C20E02032A0F48B3269F030F48C
:100A7000803259F0833269F420612CC08D3239F014
:100A8000803339F4216026C02260246023C02860AE
:100A900021C027FD27C030ED380F3A3078F426FF0B
:100AA00006C0FAE05F9E300D1124532E13C08AE079
:100AB000389E300D1124332E20620CC08E3221F46A
:100AC00026FD6BC1206406C08C3611F4206802C07C
:100AD000883641F4F60193FD859193FF81916F0172
:100AE0008111C1CF982F9F7D9554933028F40C5FCE
:100AF0001F4FFFE3F9830DC0833631F0833771F068
:100B0000833509F05BC022C0F801808189830E5FC4
:100B10001F4F44244394512C540115C03801F2E076
:100B20006F0E711CF801A080B18026FF03C0652DF7
:100B300070E002C06FEF7FEFC5012C870E94E206D4
:100B40002C0183012C852F77222E17C03801F2E06B
:100B50006F0E711CF801A080B18026FF03C0652DC7
:100B600070E002C06FEF7FEFC5012C870E94D706AF
:100B70002C012C852068222E830123FC1BC0832D91
:100B800090E048165906B0F4B70180E290E00E9468
:100B9000ED063A94F4CFF50127FC859127FE81916B
:100BA0005F01B70190E00E94ED0631103A94F1E048
:100BB0004F1A51084114510471F7E5C0843611F001
:100BC000893639F5F80127FF07C06081718182817C
:100BD00093810C5F1F4F08C060817181882777FD6A
:100BE0008095982F0E5F1F4F2F76B22E97FF09C06A
:100BF00090958095709561957F4F8F4F9F4F20689E
:100C0000B22E2AE030E0A4010E941F07A82EA818E7
:100C100044C0853729F42F7EB22E2AE030E025C06B
:100C2000F22FF97FBF2E8F36C1F018F4883579F096
:100C3000B4C0803719F0883721F0AFC02F2F206162
:100C4000B22EB4FE0DC08B2D8460B82E09C024FFD7
:100C50000AC09F2F9660B92E06C028E030E005C07C
:100C600020E130E002C020E132E0F801B7FE07C029
:100C700060817181828193810C5F1F4F06C060810A
:100C8000718180E090E00E5F1F4FA4010E941F075A
:100C9000A82EA818FB2DFF77BF2EB6FE0BC02B2D5C
:100CA0002E7FA51450F4B4FE0AC0B2FC08C02B2D50
:100CB0002E7E05C07A2C2B2D03C07A2C01C0752CFA
:100CC00024FF0DC0FE01EA0DF11D8081803311F477
:100CD000297E09C022FF06C07394739404C0822F3A
:100CE000867809F0739423FD13C020FF06C05A2CA8
:100CF000731418F4530C5718732C731468F4B70159
:100D000080E290E02C870E94ED0673942C85F5CF4D
:100D1000731410F4371801C0312C24FF12C0B7012E
:100D200080E390E02C870E94ED062C8522FF17C0FF
:100D300021FF03C088E590E002C088E790E0B7019A
:100D40000CC0822F867859F021FD02C080E201C0DC
:100D50008BE227FD8DE2B70190E00E94ED06A5141D
:100D600038F4B70180E390E00E94ED065A94F7CF83
:100D7000AA94F401EA0DF11D8081B70190E00E9470
:100D8000ED06A110F5CF332009F451CEB70180E272
:100D900090E00E94ED063A94F6CFF70186819781A4
:100DA00002C08FEF9FEF2C96E2E10C949907FC01B3
:100DB0000590615070400110D8F7809590958E0F86
:100DC0009F1F0895FC016150704001900110D8F7F9
:100DD000809590958E0F9F1F08950F931F93CF932B
:100DE000DF93182F092FEB018B8181FD03C08FEF5B
:100DF0009FEF20C082FF10C04E815F812C813D811A
:100E0000421753077CF4E881F9819F012F5F3F4F20
:100E100039832883108306C0E885F985812F0995D9
:100E2000892B29F72E813F812F5F3F4F3F832E83F0
:100E3000812F902FDF91CF911F910F910895FA018B
:100E4000AA27283051F1203181F1E8946F936E7F09
:100E50006E5F7F4F8F4F9F4FAF4FB1E03ED0B4E0FA
:100E60003CD0670F781F891F9A1FA11D680F791F3B
:100E70008A1F911DA11D6A0F711D811D911DA11D4C
:100E800020D009F468943F912AE0269F112430195C
:100E9000305D3193DEF6CF010895462F4770405DF7
:100EA0004193B3E00FD0C9F7F6CF462F4F70405DA6
:100EB0004A3318F0495D31FD4052419302D0A9F701
:100EC000EACFB4E0A6959795879577956795BA95FB
:100ED000C9F700976105710508959B01AC010A2EC1
:100EE00006945795479537952795BA95C9F7620F98
:100EF000731F841F951FA01D08952F923F924F923C
:100F00005F926F927F928F929F92AF92BF92CF9299
:100F1000DF92EF92FF920F931F93CF93DF93CDB7A2
:100F2000DEB7CA1BDB0B0FB6F894DEBF0FBECDBF1A
:100F300009942A88398848885F846E847D848C84EB
:100F40009B84AA84B984C884DF80EE80FD800C81F4
:100F50001B81AA81B981CE0FD11D0FB6F894DEBFD7
:0C0F60000FBECDBFED010895F894FFCF47
:100F6C0057616C6C3A20256900436C696666204CAD
:100F7C006566743A20256900436C69666620467282
:100F8C006F6E74204C6566743A20256900436C6959
:100F9C0066662046726F6E742052696768743A20D8
:100FAC00256900436C6966662052696768743A204B
:100FBC002569004368617267696E672053746174B8
:100FCC00653A20256900566F6C746167653A202577
:100FDC00690043757272656E743A2025690042612E
:100FEC0074746572792054656D7065726174757274
:100FFC00653A2025690042617474657279204368F2
:10100C00617267653A202569004261747465727972
:0E101C002043617061636974793A2025690090
:00000001FF
